{
  "contractName": "DivideMars",
  "abi": [
    {
      "inputs": [],
      "payable": false,
      "stateMutability": "nonpayable",
      "type": "constructor"
    },
    {
      "anonymous": false,
      "inputs": [
        {
          "indexed": true,
          "internalType": "uint256",
          "name": "start",
          "type": "uint256"
        },
        {
          "indexed": true,
          "internalType": "uint256",
          "name": "end",
          "type": "uint256"
        },
        {
          "indexed": true,
          "internalType": "address",
          "name": "fromAdsdress",
          "type": "address"
        }
      ],
      "name": "FinalSquareClaimed",
      "type": "event"
    },
    {
      "anonymous": false,
      "inputs": [
        {
          "indexed": true,
          "internalType": "uint256",
          "name": "punkIndex",
          "type": "uint256"
        }
      ],
      "name": "OfferWithdrawn",
      "type": "event"
    },
    {
      "anonymous": false,
      "inputs": [
        {
          "indexed": true,
          "internalType": "uint256",
          "name": "punkIndex",
          "type": "uint256"
        },
        {
          "indexed": false,
          "internalType": "uint256",
          "name": "value",
          "type": "uint256"
        },
        {
          "indexed": true,
          "internalType": "address",
          "name": "fromAddress",
          "type": "address"
        }
      ],
      "name": "SquareBidEntered",
      "type": "event"
    },
    {
      "anonymous": false,
      "inputs": [
        {
          "indexed": true,
          "internalType": "uint256",
          "name": "punkIndex",
          "type": "uint256"
        },
        {
          "indexed": false,
          "internalType": "uint256",
          "name": "value",
          "type": "uint256"
        },
        {
          "indexed": true,
          "internalType": "address",
          "name": "fromAddress",
          "type": "address"
        }
      ],
      "name": "SquareBidWithdrawn",
      "type": "event"
    },
    {
      "anonymous": false,
      "inputs": [
        {
          "indexed": true,
          "internalType": "uint256",
          "name": "punkIndex",
          "type": "uint256"
        },
        {
          "indexed": false,
          "internalType": "uint256",
          "name": "value",
          "type": "uint256"
        },
        {
          "indexed": true,
          "internalType": "address",
          "name": "fromAddress",
          "type": "address"
        },
        {
          "indexed": true,
          "internalType": "address",
          "name": "toAddress",
          "type": "address"
        }
      ],
      "name": "SquareBought",
      "type": "event"
    },
    {
      "anonymous": false,
      "inputs": [
        {
          "indexed": true,
          "internalType": "uint256",
          "name": "start",
          "type": "uint256"
        },
        {
          "indexed": true,
          "internalType": "uint256",
          "name": "end",
          "type": "uint256"
        },
        {
          "indexed": true,
          "internalType": "address",
          "name": "fromAdsdress",
          "type": "address"
        }
      ],
      "name": "SquareClaimed",
      "type": "event"
    },
    {
      "anonymous": false,
      "inputs": [
        {
          "indexed": true,
          "internalType": "uint256",
          "name": "punkIndex",
          "type": "uint256"
        },
        {
          "indexed": false,
          "internalType": "uint256",
          "name": "minValue",
          "type": "uint256"
        },
        {
          "indexed": true,
          "internalType": "address",
          "name": "toAddress",
          "type": "address"
        }
      ],
      "name": "SquareOffered",
      "type": "event"
    },
    {
      "constant": true,
      "inputs": [],
      "name": "CHAIN_HASH",
      "outputs": [
        {
          "internalType": "string",
          "name": "",
          "type": "string"
        }
      ],
      "payable": false,
      "stateMutability": "view",
      "type": "function"
    },
    {
      "constant": true,
      "inputs": [],
      "name": "DEGRESSION",
      "outputs": [
        {
          "internalType": "uint256",
          "name": "",
          "type": "uint256"
        }
      ],
      "payable": false,
      "stateMutability": "view",
      "type": "function"
    },
    {
      "constant": true,
      "inputs": [],
      "name": "IPFS_HASH",
      "outputs": [
        {
          "internalType": "string",
          "name": "",
          "type": "string"
        }
      ],
      "payable": false,
      "stateMutability": "view",
      "type": "function"
    },
    {
      "constant": true,
      "inputs": [],
      "name": "NAME",
      "outputs": [
        {
          "internalType": "string",
          "name": "",
          "type": "string"
        }
      ],
      "payable": false,
      "stateMutability": "view",
      "type": "function"
    },
    {
      "constant": true,
      "inputs": [],
      "name": "OWNER",
      "outputs": [
        {
          "internalType": "address",
          "name": "",
          "type": "address"
        }
      ],
      "payable": false,
      "stateMutability": "view",
      "type": "function"
    },
    {
      "constant": true,
      "inputs": [],
      "name": "TOTAL_SUPPLY",
      "outputs": [
        {
          "internalType": "uint256",
          "name": "",
          "type": "uint256"
        }
      ],
      "payable": false,
      "stateMutability": "view",
      "type": "function"
    },
    {
      "constant": true,
      "inputs": [
        {
          "internalType": "uint256",
          "name": "",
          "type": "uint256"
        }
      ],
      "name": "bids",
      "outputs": [
        {
          "internalType": "bool",
          "name": "hasBid",
          "type": "bool"
        },
        {
          "internalType": "uint256",
          "name": "punkIndex",
          "type": "uint256"
        },
        {
          "internalType": "address",
          "name": "bidder",
          "type": "address"
        },
        {
          "internalType": "uint256",
          "name": "value",
          "type": "uint256"
        }
      ],
      "payable": false,
      "stateMutability": "view",
      "type": "function"
    },
    {
      "constant": true,
      "inputs": [],
      "name": "claimProp",
      "outputs": [
        {
          "internalType": "uint256",
          "name": "",
          "type": "uint256"
        }
      ],
      "payable": false,
      "stateMutability": "view",
      "type": "function"
    },
    {
      "constant": true,
      "inputs": [
        {
          "internalType": "uint256",
          "name": "",
          "type": "uint256"
        }
      ],
      "name": "market",
      "outputs": [
        {
          "internalType": "bool",
          "name": "isForSale",
          "type": "bool"
        },
        {
          "internalType": "uint256",
          "name": "punkIndex",
          "type": "uint256"
        },
        {
          "internalType": "address",
          "name": "seller",
          "type": "address"
        },
        {
          "internalType": "uint256",
          "name": "minValue",
          "type": "uint256"
        },
        {
          "internalType": "address",
          "name": "onlySellTo",
          "type": "address"
        }
      ],
      "payable": false,
      "stateMutability": "view",
      "type": "function"
    },
    {
      "constant": true,
      "inputs": [
        {
          "internalType": "address",
          "name": "",
          "type": "address"
        }
      ],
      "name": "nClaimed",
      "outputs": [
        {
          "internalType": "uint256",
          "name": "",
          "type": "uint256"
        }
      ],
      "payable": false,
      "stateMutability": "view",
      "type": "function"
    },
    {
      "constant": true,
      "inputs": [
        {
          "internalType": "uint256",
          "name": "",
          "type": "uint256"
        }
      ],
      "name": "ownership",
      "outputs": [
        {
          "internalType": "address",
          "name": "",
          "type": "address"
        }
      ],
      "payable": false,
      "stateMutability": "view",
      "type": "function"
    },
    {
      "constant": true,
      "inputs": [],
      "name": "squaresClaimed",
      "outputs": [
        {
          "internalType": "uint256",
          "name": "",
          "type": "uint256"
        }
      ],
      "payable": false,
      "stateMutability": "view",
      "type": "function"
    },
    {
      "constant": true,
      "inputs": [
        {
          "internalType": "address",
          "name": "",
          "type": "address"
        }
      ],
      "name": "toWithdraw",
      "outputs": [
        {
          "internalType": "uint256",
          "name": "",
          "type": "uint256"
        }
      ],
      "payable": false,
      "stateMutability": "view",
      "type": "function"
    },
    {
      "constant": false,
      "inputs": [],
      "name": "withdrawEther",
      "outputs": [],
      "payable": false,
      "stateMutability": "nonpayable",
      "type": "function"
    },
    {
      "constant": false,
      "inputs": [],
      "name": "claimSquare",
      "outputs": [],
      "payable": false,
      "stateMutability": "nonpayable",
      "type": "function"
    },
    {
      "constant": false,
      "inputs": [
        {
          "internalType": "uint256",
          "name": "squareIndex",
          "type": "uint256"
        },
        {
          "internalType": "uint256",
          "name": "minSalePriceInWei",
          "type": "uint256"
        }
      ],
      "name": "offerSquareForSale",
      "outputs": [],
      "payable": false,
      "stateMutability": "nonpayable",
      "type": "function"
    },
    {
      "constant": false,
      "inputs": [
        {
          "internalType": "uint256",
          "name": "squareIndex",
          "type": "uint256"
        },
        {
          "internalType": "uint256",
          "name": "minSalePriceInWei",
          "type": "uint256"
        },
        {
          "internalType": "address",
          "name": "toAddress",
          "type": "address"
        }
      ],
      "name": "offerSquareForSaleToAddress",
      "outputs": [],
      "payable": false,
      "stateMutability": "nonpayable",
      "type": "function"
    },
    {
      "constant": false,
      "inputs": [
        {
          "internalType": "uint256",
          "name": "squareIndex",
          "type": "uint256"
        }
      ],
      "name": "squareNoLongerForSale",
      "outputs": [],
      "payable": false,
      "stateMutability": "nonpayable",
      "type": "function"
    },
    {
      "constant": false,
      "inputs": [
        {
          "internalType": "uint256",
          "name": "squareIndex",
          "type": "uint256"
        }
      ],
      "name": "buySquare",
      "outputs": [],
      "payable": true,
      "stateMutability": "payable",
      "type": "function"
    },
    {
      "constant": false,
      "inputs": [
        {
          "internalType": "uint256",
          "name": "squareIndex",
          "type": "uint256"
        }
      ],
      "name": "bidForSquare",
      "outputs": [],
      "payable": true,
      "stateMutability": "payable",
      "type": "function"
    },
    {
      "constant": false,
      "inputs": [
        {
          "internalType": "uint256",
          "name": "squareIndex",
          "type": "uint256"
        }
      ],
      "name": "withdrawBidForSquare",
      "outputs": [],
      "payable": false,
      "stateMutability": "nonpayable",
      "type": "function"
    },
    {
      "constant": false,
      "inputs": [
        {
          "internalType": "uint256",
          "name": "squareIndex",
          "type": "uint256"
        },
        {
          "internalType": "uint256",
          "name": "minPrice",
          "type": "uint256"
        }
      ],
      "name": "acceptBidForSquare",
      "outputs": [],
      "payable": false,
      "stateMutability": "nonpayable",
      "type": "function"
    }
  ],
  "bytecode": "0x608060405234801561001057600080fd5b50336000806101000a81548173ffffffffffffffffffffffffffffffffffffffff021916908373ffffffffffffffffffffffffffffffffffffffff160217905550605a6003819055506101f460018190555060006002819055506130e4806100796000396000f3fe6080604052600436106101355760003560e01c8063a3d609d9116100ab578063af4739551161006f578063af4739551461073d578063c25c7ae81461076b578063d072217d146107b0578063dc05b655146107eb578063e4e4371b14610816578063f820d04d1461084157610135565b8063a3d609d91461059e578063a3f4df7e14610603578063aa1e716314610693578063aea90ba5146106c1578063aeaa08191461072657610135565b806389fe2a7e116100fd57806389fe2a7e14610348578063902d55a5146103d85780639acbc4ca146104035780639d516bf9146104935780639dbe34bd146104be578063a0f45b691461052357610135565b8063117803e31461013a57806328861d22146101915780634423c5f1146102585780637362377b146102ec5780637472b1a214610303575b600080fd5b34801561014657600080fd5b5061014f61087c565b604051808273ffffffffffffffffffffffffffffffffffffffff1673ffffffffffffffffffffffffffffffffffffffff16815260200191505060405180910390f35b34801561019d57600080fd5b506101ca600480360360208110156101b457600080fd5b81019080803590602001909291905050506108a1565b60405180861515151581526020018581526020018473ffffffffffffffffffffffffffffffffffffffff1673ffffffffffffffffffffffffffffffffffffffff1681526020018381526020018273ffffffffffffffffffffffffffffffffffffffff1673ffffffffffffffffffffffffffffffffffffffff1681526020019550505050505060405180910390f35b34801561026457600080fd5b506102916004803603602081101561027b57600080fd5b8101908080359060200190929190505050610924565b60405180851515151581526020018481526020018373ffffffffffffffffffffffffffffffffffffffff1673ffffffffffffffffffffffffffffffffffffffff16815260200182815260200194505050505060405180910390f35b3480156102f857600080fd5b50610301610981565b005b34801561030f57600080fd5b506103466004803603604081101561032657600080fd5b810190808035906020019092919080359060200190929190505050610a54565b005b34801561035457600080fd5b5061035d6110d5565b6040518080602001828103825283818151815260200191508051906020019080838360005b8381101561039d578082015181840152602081019050610382565b50505050905090810190601f1680156103ca5780820380516001836020036101000a031916815260200191505b509250505060405180910390f35b3480156103e457600080fd5b506103ed6110f1565b6040518082815260200191505060405180910390f35b34801561040f57600080fd5b506104186110f7565b6040518080602001828103825283818151815260200191508051906020019080838360005b8381101561045857808201518184015260208101905061043d565b50505050905090810190601f1680156104855780820380516001836020036101000a031916815260200191505b509250505060405180910390f35b34801561049f57600080fd5b506104a8611113565b6040518082815260200191505060405180910390f35b3480156104ca57600080fd5b5061050d600480360360208110156104e157600080fd5b81019080803573ffffffffffffffffffffffffffffffffffffffff169060200190929190505050611119565b6040518082815260200191505060405180910390f35b34801561052f57600080fd5b5061055c6004803603602081101561054657600080fd5b8101908080359060200190929190505050611131565b604051808273ffffffffffffffffffffffffffffffffffffffff1673ffffffffffffffffffffffffffffffffffffffff16815260200191505060405180910390f35b3480156105aa57600080fd5b50610601600480360360608110156105c157600080fd5b810190808035906020019092919080359060200190929190803573ffffffffffffffffffffffffffffffffffffffff169060200190929190505050611164565b005b34801561060f57600080fd5b50610618611470565b6040518080602001828103825283818151815260200191508051906020019080838360005b8381101561065857808201518184015260208101905061063d565b50505050905090810190601f1680156106855780820380516001836020036101000a031916815260200191505b509250505060405180910390f35b6106bf600480360360208110156106a957600080fd5b81019080803590602001909291905050506114a9565b005b3480156106cd57600080fd5b50610710600480360360208110156106e457600080fd5b81019080803573ffffffffffffffffffffffffffffffffffffffff169060200190929190505050611cac565b6040518082815260200191505060405180910390f35b34801561073257600080fd5b5061073b611cc4565b005b6107696004803603602081101561075357600080fd5b810190808035906020019092919050505061202f565b005b34801561077757600080fd5b506107ae6004803603604081101561078e57600080fd5b8101908080359060200190929190803590602001909291905050506124d7565b005b3480156107bc57600080fd5b506107e9600480360360208110156107d357600080fd5b81019080803590602001909291905050506127e4565b005b3480156107f757600080fd5b50610800612b67565b6040518082815260200191505060405180910390f35b34801561082257600080fd5b5061082b612b6d565b6040518082815260200191505060405180910390f35b34801561084d57600080fd5b5061087a6004803603602081101561086457600080fd5b8101908080359060200190929190505050612b73565b005b6000809054906101000a900473ffffffffffffffffffffffffffffffffffffffff1681565b60056020528060005260406000206000915090508060000160009054906101000a900460ff16908060010154908060020160009054906101000a900473ffffffffffffffffffffffffffffffffffffffff16908060030154908060040160009054906101000a900473ffffffffffffffffffffffffffffffffffffffff16905085565b60066020528060005260406000206000915090508060000160009054906101000a900460ff16908060010154908060020160009054906101000a900473ffffffffffffffffffffffffffffffffffffffff16908060030154905084565b6000600760003373ffffffffffffffffffffffffffffffffffffffff1673ffffffffffffffffffffffffffffffffffffffff1681526020019081526020016000205490506000600760003373ffffffffffffffffffffffffffffffffffffffff1673ffffffffffffffffffffffffffffffffffffffff168152602001908152602001600020819055503373ffffffffffffffffffffffffffffffffffffffff166108fc829081150290604051600060405180830381858888f19350505050158015610a50573d6000803e3d6000fd5b5050565b61271060025414610ab0576040517f08c379a00000000000000000000000000000000000000000000000000000000081526004018080602001828103825260298152602001806130476029913960400191505060405180910390fd5b6127108210610b27576040517f08c379a00000000000000000000000000000000000000000000000000000000081526004018080602001828103825260158152602001807f53717561726520646f6573206e6f74206578697374000000000000000000000081525060200191505060405180910390fd5b3373ffffffffffffffffffffffffffffffffffffffff166004600084815260200190815260200160002060009054906101000a900473ffffffffffffffffffffffffffffffffffffffff1673ffffffffffffffffffffffffffffffffffffffff1614610bfb576040517f08c379a000000000000000000000000000000000000000000000000000000000815260040180806020018281038252601a8152602001807f596f7520646f206e6f74206f776e20746869732073717561726500000000000081525060200191505060405180910390fd5b610c03612e5d565b600660008481526020019081526020016000206040518060800160405290816000820160009054906101000a900460ff16151515158152602001600182015481526020016002820160009054906101000a900473ffffffffffffffffffffffffffffffffffffffff1673ffffffffffffffffffffffffffffffffffffffff1673ffffffffffffffffffffffffffffffffffffffff16815260200160038201548152505090506000816060015111610d22576040517f08c379a000000000000000000000000000000000000000000000000000000000815260040180806020018281038252601e8152602001807f456d707479206269642063616e206e6f742062652061636365707465642e000081525060200191505060405180910390fd5b8181606001511015610d7f576040517f08c379a0000000000000000000000000000000000000000000000000000000008152600401808060200182810382526029815260200180612f586029913960400191505060405180910390fd5b80604001516004600085815260200190815260200160002060006101000a81548173ffffffffffffffffffffffffffffffffffffffff021916908373ffffffffffffffffffffffffffffffffffffffff160217905550600860003373ffffffffffffffffffffffffffffffffffffffff1673ffffffffffffffffffffffffffffffffffffffff168152602001908152602001600020600081548092919060019003919050555060086000826040015173ffffffffffffffffffffffffffffffffffffffff1673ffffffffffffffffffffffffffffffffffffffff168152602001908152602001600020600081548092919060010191905055506040518060a00160405280600015158152602001848152602001826040015173ffffffffffffffffffffffffffffffffffffffff16815260200160008152602001600073ffffffffffffffffffffffffffffffffffffffff168152506005600085815260200190815260200160002060008201518160000160006101000a81548160ff0219169083151502179055506020820151816001015560408201518160020160006101000a81548173ffffffffffffffffffffffffffffffffffffffff021916908373ffffffffffffffffffffffffffffffffffffffff1602179055506060820151816003015560808201518160040160006101000a81548173ffffffffffffffffffffffffffffffffffffffff021916908373ffffffffffffffffffffffffffffffffffffffff1602179055509050506000816060015190506040518060800160405280600015158152602001858152602001600073ffffffffffffffffffffffffffffffffffffffff16815260200160008152506006600086815260200190815260200160002060008201518160000160006101000a81548160ff0219169083151502179055506020820151816001015560408201518160020160006101000a81548173ffffffffffffffffffffffffffffffffffffffff021916908373ffffffffffffffffffffffffffffffffffffffff1602179055506060820151816003015590505080600760003373ffffffffffffffffffffffffffffffffffffffff1673ffffffffffffffffffffffffffffffffffffffff1681526020019081526020016000206000828254019250508190555050505050565b6040518060600160405280602e8152602001612f2a602e913981565b61271081565b6040518060600160405280604081526020016130706040913981565b60035481565b60076020528060005260406000206000915090505481565b60046020528060005260406000206000915054906101000a900473ffffffffffffffffffffffffffffffffffffffff1681565b612710600254146111c0576040517f08c379a00000000000000000000000000000000000000000000000000000000081526004018080602001828103825260298152602001806130476029913960400191505060405180910390fd5b3373ffffffffffffffffffffffffffffffffffffffff166004600085815260200190815260200160002060009054906101000a900473ffffffffffffffffffffffffffffffffffffffff1673ffffffffffffffffffffffffffffffffffffffff1614611277576040517f08c379a0000000000000000000000000000000000000000000000000000000008152600401808060200182810382526029815260200180612fc86029913960400191505060405180910390fd5b61271083106112ee576040517f08c379a00000000000000000000000000000000000000000000000000000000081526004018080602001828103825260158152602001807f53717561726520646f6573206e6f74206578697374000000000000000000000081525060200191505060405180910390fd5b6040518060a001604052806001151581526020018481526020013373ffffffffffffffffffffffffffffffffffffffff1681526020018381526020018273ffffffffffffffffffffffffffffffffffffffff168152506005600085815260200190815260200160002060008201518160000160006101000a81548160ff0219169083151502179055506020820151816001015560408201518160020160006101000a81548173ffffffffffffffffffffffffffffffffffffffff021916908373ffffffffffffffffffffffffffffffffffffffff1602179055506060820151816003015560808201518160040160006101000a81548173ffffffffffffffffffffffffffffffffffffffff021916908373ffffffffffffffffffffffffffffffffffffffff1602179055509050508073ffffffffffffffffffffffffffffffffffffffff16837f0b189ccf53019ae86c4cef3c685849357023ae79d4ae277297b14966e5ac5f30846040518082815260200191505060405180910390a3505050565b6040518060400160405280600a81526020017f4469766964654d6172730000000000000000000000000000000000000000000081525081565b61271060025414611505576040517f08c379a00000000000000000000000000000000000000000000000000000000081526004018080602001828103825260298152602001806130476029913960400191505060405180910390fd5b612710811061157c576040517f08c379a00000000000000000000000000000000000000000000000000000000081526004018080602001828103825260158152602001807f53717561726520646f6573206e6f74206578697374000000000000000000000081525060200191505060405180910390fd5b611584612e9d565b600560008381526020019081526020016000206040518060a00160405290816000820160009054906101000a900460ff16151515158152602001600182015481526020016002820160009054906101000a900473ffffffffffffffffffffffffffffffffffffffff1673ffffffffffffffffffffffffffffffffffffffff1673ffffffffffffffffffffffffffffffffffffffff168152602001600382015481526020016004820160009054906101000a900473ffffffffffffffffffffffffffffffffffffffff1673ffffffffffffffffffffffffffffffffffffffff1673ffffffffffffffffffffffffffffffffffffffff1681525050905080600001516116f6576040517f08c379a00000000000000000000000000000000000000000000000000000000081526004018080602001828103825260168152602001807f537175617265206973206e6f7420666f722073616c650000000000000000000081525060200191505060405180910390fd5b600073ffffffffffffffffffffffffffffffffffffffff16816080015173ffffffffffffffffffffffffffffffffffffffff16146117d4573373ffffffffffffffffffffffffffffffffffffffff16816080015173ffffffffffffffffffffffffffffffffffffffff16146117d3576040517f08c379a000000000000000000000000000000000000000000000000000000000815260040180806020018281038252601c8152602001807f537175617265206973206e6f74206f66666572656420746f20796f750000000081525060200191505060405180910390fd5b5b8060600151341015611831576040517f08c379a000000000000000000000000000000000000000000000000000000000815260040180806020018281038252602881526020018061301f6028913960400191505060405180910390fd5b6004600083815260200190815260200160002060009054906101000a900473ffffffffffffffffffffffffffffffffffffffff1673ffffffffffffffffffffffffffffffffffffffff16816040015173ffffffffffffffffffffffffffffffffffffffff16146118ec576040517f08c379a000000000000000000000000000000000000000000000000000000000815260040180806020018281038252602e815260200180612ff1602e913960400191505060405180910390fd5b600081604001519050336004600085815260200190815260200160002060006101000a81548173ffffffffffffffffffffffffffffffffffffffff021916908373ffffffffffffffffffffffffffffffffffffffff160217905550600860008273ffffffffffffffffffffffffffffffffffffffff1673ffffffffffffffffffffffffffffffffffffffff1681526020019081526020016000206000815480929190600190039190505550600860003373ffffffffffffffffffffffffffffffffffffffff1673ffffffffffffffffffffffffffffffffffffffff168152602001908152602001600020600081548092919060010191905055506119ef83612b73565b34600760008373ffffffffffffffffffffffffffffffffffffffff1673ffffffffffffffffffffffffffffffffffffffff16815260200190815260200160002060008282540192505081905550611a44612e5d565b600660008581526020019081526020016000206040518060800160405290816000820160009054906101000a900460ff16151515158152602001600182015481526020016002820160009054906101000a900473ffffffffffffffffffffffffffffffffffffffff1673ffffffffffffffffffffffffffffffffffffffff1673ffffffffffffffffffffffffffffffffffffffff16815260200160038201548152505090503373ffffffffffffffffffffffffffffffffffffffff16816040015173ffffffffffffffffffffffffffffffffffffffff161415611c40578060600151600760003373ffffffffffffffffffffffffffffffffffffffff1673ffffffffffffffffffffffffffffffffffffffff168152602001908152602001600020600082825401925050819055506040518060800160405280600015158152602001858152602001600073ffffffffffffffffffffffffffffffffffffffff16815260200160008152506006600086815260200190815260200160002060008201518160000160006101000a81548160ff0219169083151502179055506020820151816001015560408201518160020160006101000a81548173ffffffffffffffffffffffffffffffffffffffff021916908373ffffffffffffffffffffffffffffffffffffffff160217905550606082015181600301559050505b3373ffffffffffffffffffffffffffffffffffffffff168273ffffffffffffffffffffffffffffffffffffffff16857f0b46412cf922d320a6d3b65fa9b31843ec790b7a64f5fac56b738441f306256e346040518082815260200191505060405180910390a450505050565b60086020528060005260406000206000915090505481565b61271060025410611d3d576040517f08c379a00000000000000000000000000000000000000000000000000000000081526004018080602001828103825260118152602001807f436c61696d696e67206973206f7665722e00000000000000000000000000000081525060200191505060405180910390fd5b6000600860003373ffffffffffffffffffffffffffffffffffffffff1673ffffffffffffffffffffffffffffffffffffffff1681526020019081526020016000205414611dd5576040517f08c379a0000000000000000000000000000000000000000000000000000000008152600401808060200182810382526021815260200180612fa76021913960400191505060405180910390fd5b60006001546002540190506127108110611f05576127109050600060025490505b81811015611e5d57336004600083815260200190815260200160002060006101000a81548173ffffffffffffffffffffffffffffffffffffffff021916908373ffffffffffffffffffffffffffffffffffffffff1602179055508080600101915050611df6565b50600154600860003373ffffffffffffffffffffffffffffffffffffffff1673ffffffffffffffffffffffffffffffffffffffff168152602001908152602001600020819055506127106002819055506001600090556003600090553373ffffffffffffffffffffffffffffffffffffffff16816002547f945d3943201927425cc233ef1a48fb87b1704650a56434556f4fc70a856eb3cf60405160405180910390a461202c565b600060025490505b81811015611f7457336004600083815260200190815260200160002060006101000a81548173ffffffffffffffffffffffffffffffffffffffff021916908373ffffffffffffffffffffffffffffffffffffffff1602179055508080600101915050611f0d565b50600154600860003373ffffffffffffffffffffffffffffffffffffffff1673ffffffffffffffffffffffffffffffffffffffff168152602001908152602001600020819055503373ffffffffffffffffffffffffffffffffffffffff16816002547f6c818ef5720d7f65afa9f8b4e998d4bfb49bb4192334f4a183f61f62d6796f6960405160405180910390a46001546002600082825401925050819055506064600354600154028161202457fe5b046001819055505b50565b6127106002541461208b576040517f08c379a00000000000000000000000000000000000000000000000000000000081526004018080602001828103825260298152602001806130476029913960400191505060405180910390fd5b6127108110612102576040517f08c379a00000000000000000000000000000000000000000000000000000000081526004018080602001828103825260158152602001807f53717561726520646f6573206e6f74206578697374000000000000000000000081525060200191505060405180910390fd5b3373ffffffffffffffffffffffffffffffffffffffff166004600083815260200190815260200160002060009054906101000a900473ffffffffffffffffffffffffffffffffffffffff1673ffffffffffffffffffffffffffffffffffffffff1614156121d7576040517f08c379a000000000000000000000000000000000000000000000000000000000815260040180806020018281038252601b8152602001807f596f75206f776e20746869732073717561726520616c7265616479000000000081525060200191505060405180910390fd5b6000341161224d576040517f08c379a00000000000000000000000000000000000000000000000000000000081526004018080602001828103825260108152602001807f426964206c6f776572207468616e20300000000000000000000000000000000081525060200191505060405180910390fd5b612255612e5d565b600660008381526020019081526020016000206040518060800160405290816000820160009054906101000a900460ff16151515158152602001600182015481526020016002820160009054906101000a900473ffffffffffffffffffffffffffffffffffffffff1673ffffffffffffffffffffffffffffffffffffffff1673ffffffffffffffffffffffffffffffffffffffff168152602001600382015481525050905080606001513411612356576040517f08c379a0000000000000000000000000000000000000000000000000000000008152600401808060200182810382526026815260200180612f816026913960400191505060405180910390fd5b6000816060015111156123b957806060015160076000836040015173ffffffffffffffffffffffffffffffffffffffff1673ffffffffffffffffffffffffffffffffffffffff168152602001908152602001600020600082825401925050819055505b60405180608001604052806001151581526020018381526020013373ffffffffffffffffffffffffffffffffffffffff168152602001348152506006600084815260200190815260200160002060008201518160000160006101000a81548160ff0219169083151502179055506020820151816001015560408201518160020160006101000a81548173ffffffffffffffffffffffffffffffffffffffff021916908373ffffffffffffffffffffffffffffffffffffffff160217905550606082015181600301559050503373ffffffffffffffffffffffffffffffffffffffff16827f9b3e4eb06f87f90c9af7a2b8fb2eacb08f1c3e267f239a547b3aa3c1c90249ab346040518082815260200191505060405180910390a35050565b61271060025414612533576040517f08c379a00000000000000000000000000000000000000000000000000000000081526004018080602001828103825260298152602001806130476029913960400191505060405180910390fd5b3373ffffffffffffffffffffffffffffffffffffffff166004600084815260200190815260200160002060009054906101000a900473ffffffffffffffffffffffffffffffffffffffff1673ffffffffffffffffffffffffffffffffffffffff16146125ea576040517f08c379a0000000000000000000000000000000000000000000000000000000008152600401808060200182810382526029815260200180612fc86029913960400191505060405180910390fd5b6127108210612661576040517f08c379a00000000000000000000000000000000000000000000000000000000081526004018080602001828103825260158152602001807f53717561726520646f6573206e6f74206578697374000000000000000000000081525060200191505060405180910390fd5b6040518060a001604052806001151581526020018381526020013373ffffffffffffffffffffffffffffffffffffffff168152602001828152602001600073ffffffffffffffffffffffffffffffffffffffff168152506005600084815260200190815260200160002060008201518160000160006101000a81548160ff0219169083151502179055506020820151816001015560408201518160020160006101000a81548173ffffffffffffffffffffffffffffffffffffffff021916908373ffffffffffffffffffffffffffffffffffffffff1602179055506060820151816003015560808201518160040160006101000a81548173ffffffffffffffffffffffffffffffffffffffff021916908373ffffffffffffffffffffffffffffffffffffffff160217905550905050600073ffffffffffffffffffffffffffffffffffffffff16827f0b189ccf53019ae86c4cef3c685849357023ae79d4ae277297b14966e5ac5f30836040518082815260200191505060405180910390a35050565b61271060025414612840576040517f08c379a00000000000000000000000000000000000000000000000000000000081526004018080602001828103825260298152602001806130476029913960400191505060405180910390fd5b61271081106128b7576040517f08c379a00000000000000000000000000000000000000000000000000000000081526004018080602001828103825260158152602001807f53717561726520646f6573206e6f74206578697374000000000000000000000081525060200191505060405180910390fd5b6128bf612e5d565b600660008381526020019081526020016000206040518060800160405290816000820160009054906101000a900460ff16151515158152602001600182015481526020016002820160009054906101000a900473ffffffffffffffffffffffffffffffffffffffff1673ffffffffffffffffffffffffffffffffffffffff1673ffffffffffffffffffffffffffffffffffffffff16815260200160038201548152505090503373ffffffffffffffffffffffffffffffffffffffff16816040015173ffffffffffffffffffffffffffffffffffffffff16146129ec576040517f08c379a000000000000000000000000000000000000000000000000000000000815260040180806020018281038252602f815260200180612efb602f913960400191505060405180910390fd5b6000816060015190506040518060800160405280600015158152602001848152602001600073ffffffffffffffffffffffffffffffffffffffff16815260200160008152506006600085815260200190815260200160002060008201518160000160006101000a81548160ff0219169083151502179055506020820151816001015560408201518160020160006101000a81548173ffffffffffffffffffffffffffffffffffffffff021916908373ffffffffffffffffffffffffffffffffffffffff1602179055506060820151816003015590505080600760003373ffffffffffffffffffffffffffffffffffffffff1673ffffffffffffffffffffffffffffffffffffffff168152602001908152602001600020600082825401925050819055503373ffffffffffffffffffffffffffffffffffffffff16837fa9a558244002bf6e768a8af234f1834be128a6370b88dc6f98b52e6f80c8ccdf84606001516040518082815260200191505060405180910390a3505050565b60015481565b60025481565b61271060025414612bcf576040517f08c379a00000000000000000000000000000000000000000000000000000000081526004018080602001828103825260298152602001806130476029913960400191505060405180910390fd5b3373ffffffffffffffffffffffffffffffffffffffff166004600083815260200190815260200160002060009054906101000a900473ffffffffffffffffffffffffffffffffffffffff1673ffffffffffffffffffffffffffffffffffffffff1614612c86576040517f08c379a0000000000000000000000000000000000000000000000000000000008152600401808060200182810382526029815260200180612fc86029913960400191505060405180910390fd5b6127108110612cfd576040517f08c379a00000000000000000000000000000000000000000000000000000000081526004018080602001828103825260158152602001807f53717561726520646f6573206e6f74206578697374000000000000000000000081525060200191505060405180910390fd5b6040518060a001604052806000151581526020018281526020013373ffffffffffffffffffffffffffffffffffffffff16815260200160008152602001600073ffffffffffffffffffffffffffffffffffffffff168152506005600083815260200190815260200160002060008201518160000160006101000a81548160ff0219169083151502179055506020820151816001015560408201518160020160006101000a81548173ffffffffffffffffffffffffffffffffffffffff021916908373ffffffffffffffffffffffffffffffffffffffff1602179055506060820151816003015560808201518160040160006101000a81548173ffffffffffffffffffffffffffffffffffffffff021916908373ffffffffffffffffffffffffffffffffffffffff160217905550905050807facbc44b7f46dc350c99fc0d9e5f61ed5c588cb4cdc6b69ea0deb0c5b28e5efc460405160405180910390a250565b604051806080016040528060001515815260200160008152602001600073ffffffffffffffffffffffffffffffffffffffff168152602001600081525090565b6040518060a0016040528060001515815260200160008152602001600073ffffffffffffffffffffffffffffffffffffffff16815260200160008152602001600073ffffffffffffffffffffffffffffffffffffffff168152509056fe5468657265206973206e6f20616374697665206265742066726f6d20796f7520666f72207468697320737175617265516d576d57665231583941506f324c56557a377266586a5067504d71356a6676534631784d74676b63664a71626354686520626964206973206c6f776572207468616e20796f7572206d696e696d756d2070726963652e596f757220626964206973206c6f776572207468616e207468652063757272656e7420626964596f7520616c726561647920636c61696d656420796f757220706f7274696f6e21596f752063616e206e6f74206f6666657220612073717561726520796f7520646f206e6f74206f776e5468697320737175617265206973206e6f206c6f6e676572206f776e65642062792074686973206164647265737354686520707269636520697320686967686572207468616e20796f75722073656e742045746865725472616465206f70656e732061667465722074686520636c61696d696e6720706861736520656e647365333265633630613131383635356561336330343462616636626437386533616230353763393266313632363338313533616565396233663263356561643762a265627a7a72315820e50fdabf69705b386a936f8f5edb1e28163fadf05a432f049b3e06c701702eb964736f6c63430005100032",
  "source": "//SPDX-License-Identifier: MIT\n\n// most efficient way to delete offer /bid?\n// do we need an owner?\n// can we get the info offer is not for sale without an mapping entry?\n// better way tp safe the trading info in the mapping?\n// best way to withdraw?\n// verification for the owner? send function to verify an account belongs to someone\npragma solidity ^0.5.16;\n\n\n/// @title A simple contract to store property rights on mars\ncontract DivideMars {\n\n    // Constants and mars divison verification\n    string public constant CHAIN_HASH = \"e32ec60a118655ea3c044baf6bd78e3ab057c92f162638153aee9b3f2c5ead7b\";\n    string public constant IPFS_HASH = \"QmWmWfR1X9APo2LVUz7rfXjPgPMq5jfvSF1xMtgkcfJqbc\";\n    uint public constant TOTAL_SUPPLY = 10000;\n    string public constant NAME =  \"DivideMars\";\n\n    address public OWNER;\n\n    //Variables for claiming\n    uint public claimProp;\n    uint public squaresClaimed;\n    uint public DEGRESSION ;\n\n    //Mappings\n    mapping(uint => address) public ownership;\n    mapping(uint => Offer) public market;\n    mapping(uint => Bid) public bids;\n    mapping(address => uint) public toWithdraw;\n    mapping(address => uint256) public nClaimed;\n\n    constructor()  public {\n        OWNER = msg.sender;\n        DEGRESSION = 90;\n        claimProp = 500;  // First claim amount\n        squaresClaimed = 0;  //Where to sart the claim\n    }\n\n    // Events\n    event SquareBidEntered(uint indexed punkIndex, uint value, address indexed fromAddress);\n    event SquareOffered(uint indexed punkIndex, uint minValue, address indexed toAddress);\n    event SquareBidWithdrawn(uint indexed punkIndex, uint value, address indexed fromAddress);\n    event SquareBought(uint indexed punkIndex, uint value, address indexed fromAddress, address indexed toAddress);\n    event OfferWithdrawn(uint indexed punkIndex);\n    event SquareClaimed(uint indexed start, uint indexed end,  address indexed fromAdsdress);\n    event FinalSquareClaimed(uint indexed start, uint indexed end,  address indexed fromAdsdress);\n\n    struct Offer {\n        bool isForSale;\n        uint punkIndex;\n        address seller;\n        uint minValue;          // in ether\n        address onlySellTo;     // specify to sell only to a specific person\n    }\n\n    struct Bid {\n        bool hasBid;\n        uint punkIndex;\n        address bidder;\n        uint value;\n    }\n\n    // withdraw offers\n    function withdrawEther() public {\n        uint  amount  = toWithdraw[msg.sender];\n        // Remember to zero the pending refund before\n        // sending to prevent re-entrancy attacks\n        toWithdraw[msg.sender] = 0;\n        msg.sender.transfer(amount);\n    }\n\n\n    // Version 1: Simple claim based on ID\n    function claimSquare() public {\n        require(squaresClaimed < TOTAL_SUPPLY, \"Claiming is over.\");\n        require(nClaimed[msg.sender] == 0, \"You already claimed your portion!\");\n        uint ids = squaresClaimed + claimProp;\n        if(ids >= TOTAL_SUPPLY){\n            ids = TOTAL_SUPPLY;\n            for (uint i=squaresClaimed; i < (ids) ; i++) {\n            ownership[i] = msg.sender;\n            }\n            nClaimed[msg.sender] = claimProp;\n            squaresClaimed = TOTAL_SUPPLY;\n            delete claimProp;\n            delete DEGRESSION;\n            emit FinalSquareClaimed(squaresClaimed, ids , msg.sender);\n        }\n        else {\n            for (uint i=squaresClaimed; i < (ids) ; i++) {\n                ownership[i] = msg.sender;\n            }\n            nClaimed[msg.sender] = claimProp;\n            emit SquareClaimed(squaresClaimed, ids , msg.sender);\n            squaresClaimed += claimProp;\n            claimProp = claimProp * DEGRESSION / 100;\n        }\n     }\n\n    // Offers\n    function offerSquareForSale (uint squareIndex, uint minSalePriceInWei)  public  {\n        require(squaresClaimed == TOTAL_SUPPLY , \"Trade opens after the claiming phase ends\");\n        require(ownership[squareIndex] == msg.sender, \"You can not offer a square you do not own\");\n        require(squareIndex < TOTAL_SUPPLY, \"Square does not exist\");\n        market[squareIndex] = Offer(true, squareIndex, msg.sender, minSalePriceInWei, address(0x0));\n        emit SquareOffered(squareIndex, minSalePriceInWei, address(0x0));\n    }\n\n    function offerSquareForSaleToAddress (uint squareIndex, uint minSalePriceInWei, address toAddress)  public  {\n        require(squaresClaimed == TOTAL_SUPPLY , \"Trade opens after the claiming phase ends\");\n        require(ownership[squareIndex] == msg.sender, \"You can not offer a square you do not own\");\n        require(squareIndex < TOTAL_SUPPLY, \"Square does not exist\");\n        market[squareIndex] = Offer(true, squareIndex, msg.sender, minSalePriceInWei, toAddress);\n        emit SquareOffered(squareIndex, minSalePriceInWei, toAddress);\n    }\n\n    function squareNoLongerForSale(uint squareIndex) public {\n        require(squaresClaimed == TOTAL_SUPPLY , \"Trade opens after the claiming phase ends\");\n        require(ownership[squareIndex] == msg.sender, \"You can not offer a square you do not own\");\n        require(squareIndex < TOTAL_SUPPLY, \"Square does not exist\");\n        market[squareIndex] = Offer(false, squareIndex, msg.sender, 0, address(0x0));\n        emit OfferWithdrawn(squareIndex);\n    }\n\n    function buySquare(uint squareIndex) public payable {\n        require(squaresClaimed == TOTAL_SUPPLY , \"Trade opens after the claiming phase ends\");\n        require(squareIndex < TOTAL_SUPPLY, \"Square does not exist\");\n        Offer memory offer = market[squareIndex];\n        require(offer.isForSale, \"Square is not for sale\");\n        if (offer.onlySellTo != address(0x0)) {\n            require(offer.onlySellTo == msg.sender, \"Square is not offered to you\");\n        }\n        require(msg.value >= offer.minValue, \"The price is higher than your sent Ether\");\n        require(offer.seller == ownership[squareIndex], \"This square is no longer owned by this address\"); //sanity check\n        address seller = offer.seller;\n        ownership[squareIndex] = msg.sender;\n        nClaimed[seller]--;\n        nClaimed[msg.sender]++;\n        squareNoLongerForSale(squareIndex);\n        toWithdraw[seller] += msg.value;\n        // Check for the case where there is a bid from the new owner and refund it.\n        Bid memory bid = bids[squareIndex];\n        if (bid.bidder == msg.sender) {\n            // Kill bid and refund value\n            toWithdraw[msg.sender] += bid.value;\n            bids[squareIndex] = Bid(false, squareIndex, address(0x0), 0);\n        }\n        emit SquareBought(squareIndex, msg.value, seller, msg.sender);\n    }\n\n    // Bidding\n    function bidForSquare(uint squareIndex) public payable {\n        require(squaresClaimed == TOTAL_SUPPLY , \"Trade opens after the claiming phase ends\");\n        require(squareIndex < TOTAL_SUPPLY, \"Square does not exist\");\n        require(ownership[squareIndex] != msg.sender, \"You own this square already\");\n        require(msg.value > 0, \"Bid lower than 0\");\n        Bid memory existing = bids[squareIndex];\n        require(msg.value > existing.value, \"Your bid is lower than the current bid\");\n        if (existing.value > 0) {\n            // Refund the failing bid\n            toWithdraw[existing.bidder] += existing.value;\n        }\n        bids[squareIndex] = Bid(true, squareIndex, msg.sender, msg.value);\n        emit SquareBidEntered(squareIndex, msg.value, msg.sender);\n    }\n\n    function withdrawBidForSquare  (uint squareIndex)  public  {\n        require(squaresClaimed == TOTAL_SUPPLY, \"Trade opens after the claiming phase ends\");\n        require(squareIndex < TOTAL_SUPPLY, \"Square does not exist\");\n        Bid memory bid = bids[squareIndex];\n        require(bid.bidder ==  msg.sender, \"There is no active bet from you for this square\");\n        uint amount = bid.value;\n        bids[squareIndex] = Bid(false, squareIndex, address(0x0), 0);\n        toWithdraw[msg.sender] += amount;\n        emit SquareBidWithdrawn(squareIndex, bid.value, msg.sender);\n\n    }\n\n    function acceptBidForSquare  (uint squareIndex, uint minPrice)  public  {\n        require(squaresClaimed == TOTAL_SUPPLY , \"Trade opens after the claiming phase ends\");\n        require(squareIndex < TOTAL_SUPPLY, \"Square does not exist\");\n        require(ownership[squareIndex] == msg.sender, \"You do not own this square\");\n        Bid memory bid = bids[squareIndex];\n        require(bid.value > 0, \"Empty bid can not be accepted.\");\n        require(bid.value >= minPrice, \"The bid is lower than your minimum price.\");\n        ownership[squareIndex] = bid.bidder;\n        nClaimed[msg.sender]--;\n        nClaimed[bid.bidder]++;\n        market[squareIndex] = Offer(false, squareIndex, bid.bidder, 0, address(0x0));\n        uint amount = bid.value;\n        bids[squareIndex] = Bid(false, squareIndex, address(0x0), 0);\n        toWithdraw[msg.sender] += amount;\n    }\n}",
  "sourcePath": "C:/Users/igors/Documents/mars/mars_project/contracts/DivideMars.sol",
  "compiler": {
    "name": "solc",
    "version": "0.5.16+commit.9c3226ce.Emscripten.clang"
  },
  "schemaVersion": "3.3.4",
  "updatedAt": "2021-05-01T13:19:51.301Z",
  "networkType": "ethereum",
  "devdoc": {
    "methods": {},
    "title": "A simple contract to store property rights on mars"
  },
  "userdoc": {
    "methods": {}
  }
}