{
  "contractName": "DivideMars",
  "abi": [
    {
      "inputs": [],
      "payable": false,
      "stateMutability": "nonpayable",
      "type": "constructor"
    },
    {
      "anonymous": false,
      "inputs": [
        {
          "indexed": true,
          "internalType": "uint256",
          "name": "start",
          "type": "uint256"
        },
        {
          "indexed": true,
          "internalType": "uint256",
          "name": "end",
          "type": "uint256"
        },
        {
          "indexed": true,
          "internalType": "address",
          "name": "fromAdsdress",
          "type": "address"
        }
      ],
      "name": "FinalSquareClaimed",
      "type": "event"
    },
    {
      "anonymous": false,
      "inputs": [
        {
          "indexed": true,
          "internalType": "uint256",
          "name": "punkIndex",
          "type": "uint256"
        }
      ],
      "name": "OfferWithdrawn",
      "type": "event"
    },
    {
      "anonymous": false,
      "inputs": [
        {
          "indexed": true,
          "internalType": "uint256",
          "name": "punkIndex",
          "type": "uint256"
        },
        {
          "indexed": false,
          "internalType": "uint256",
          "name": "value",
          "type": "uint256"
        },
        {
          "indexed": true,
          "internalType": "address",
          "name": "fromAddress",
          "type": "address"
        }
      ],
      "name": "SquareBidEntered",
      "type": "event"
    },
    {
      "anonymous": false,
      "inputs": [
        {
          "indexed": true,
          "internalType": "uint256",
          "name": "punkIndex",
          "type": "uint256"
        },
        {
          "indexed": false,
          "internalType": "uint256",
          "name": "value",
          "type": "uint256"
        },
        {
          "indexed": true,
          "internalType": "address",
          "name": "fromAddress",
          "type": "address"
        }
      ],
      "name": "SquareBidWithdrawn",
      "type": "event"
    },
    {
      "anonymous": false,
      "inputs": [
        {
          "indexed": true,
          "internalType": "uint256",
          "name": "punkIndex",
          "type": "uint256"
        },
        {
          "indexed": false,
          "internalType": "uint256",
          "name": "value",
          "type": "uint256"
        },
        {
          "indexed": true,
          "internalType": "address",
          "name": "fromAddress",
          "type": "address"
        },
        {
          "indexed": true,
          "internalType": "address",
          "name": "toAddress",
          "type": "address"
        }
      ],
      "name": "SquareBought",
      "type": "event"
    },
    {
      "anonymous": false,
      "inputs": [
        {
          "indexed": true,
          "internalType": "uint256",
          "name": "start",
          "type": "uint256"
        },
        {
          "indexed": true,
          "internalType": "uint256",
          "name": "end",
          "type": "uint256"
        },
        {
          "indexed": true,
          "internalType": "address",
          "name": "fromAdsdress",
          "type": "address"
        }
      ],
      "name": "SquareClaimed",
      "type": "event"
    },
    {
      "anonymous": false,
      "inputs": [
        {
          "indexed": true,
          "internalType": "uint256",
          "name": "punkIndex",
          "type": "uint256"
        },
        {
          "indexed": false,
          "internalType": "uint256",
          "name": "minValue",
          "type": "uint256"
        },
        {
          "indexed": true,
          "internalType": "address",
          "name": "toAddress",
          "type": "address"
        }
      ],
      "name": "SquareOffered",
      "type": "event"
    },
    {
      "constant": true,
      "inputs": [],
      "name": "DEGRESSION",
      "outputs": [
        {
          "internalType": "uint256",
          "name": "",
          "type": "uint256"
        }
      ],
      "payable": false,
      "stateMutability": "view",
      "type": "function"
    },
    {
      "constant": true,
      "inputs": [],
      "name": "IPFS_HASH",
      "outputs": [
        {
          "internalType": "string",
          "name": "",
          "type": "string"
        }
      ],
      "payable": false,
      "stateMutability": "view",
      "type": "function"
    },
    {
      "constant": true,
      "inputs": [],
      "name": "MAP_HASH",
      "outputs": [
        {
          "internalType": "string",
          "name": "",
          "type": "string"
        }
      ],
      "payable": false,
      "stateMutability": "view",
      "type": "function"
    },
    {
      "constant": true,
      "inputs": [],
      "name": "NAME",
      "outputs": [
        {
          "internalType": "string",
          "name": "",
          "type": "string"
        }
      ],
      "payable": false,
      "stateMutability": "view",
      "type": "function"
    },
    {
      "constant": true,
      "inputs": [],
      "name": "TOTAL_SUPPLY",
      "outputs": [
        {
          "internalType": "uint256",
          "name": "",
          "type": "uint256"
        }
      ],
      "payable": false,
      "stateMutability": "view",
      "type": "function"
    },
    {
      "constant": true,
      "inputs": [
        {
          "internalType": "uint256",
          "name": "",
          "type": "uint256"
        }
      ],
      "name": "bids",
      "outputs": [
        {
          "internalType": "bool",
          "name": "hasBid",
          "type": "bool"
        },
        {
          "internalType": "uint256",
          "name": "punkIndex",
          "type": "uint256"
        },
        {
          "internalType": "address",
          "name": "bidder",
          "type": "address"
        },
        {
          "internalType": "uint256",
          "name": "value",
          "type": "uint256"
        }
      ],
      "payable": false,
      "stateMutability": "view",
      "type": "function"
    },
    {
      "constant": true,
      "inputs": [],
      "name": "claimProp",
      "outputs": [
        {
          "internalType": "uint256",
          "name": "",
          "type": "uint256"
        }
      ],
      "payable": false,
      "stateMutability": "view",
      "type": "function"
    },
    {
      "constant": true,
      "inputs": [
        {
          "internalType": "uint256",
          "name": "",
          "type": "uint256"
        }
      ],
      "name": "market",
      "outputs": [
        {
          "internalType": "bool",
          "name": "isForSale",
          "type": "bool"
        },
        {
          "internalType": "uint256",
          "name": "punkIndex",
          "type": "uint256"
        },
        {
          "internalType": "address",
          "name": "seller",
          "type": "address"
        },
        {
          "internalType": "uint256",
          "name": "minValue",
          "type": "uint256"
        },
        {
          "internalType": "address",
          "name": "onlySellTo",
          "type": "address"
        }
      ],
      "payable": false,
      "stateMutability": "view",
      "type": "function"
    },
    {
      "constant": true,
      "inputs": [
        {
          "internalType": "address",
          "name": "",
          "type": "address"
        }
      ],
      "name": "nClaimed",
      "outputs": [
        {
          "internalType": "uint256",
          "name": "",
          "type": "uint256"
        }
      ],
      "payable": false,
      "stateMutability": "view",
      "type": "function"
    },
    {
      "constant": true,
      "inputs": [
        {
          "internalType": "uint256",
          "name": "",
          "type": "uint256"
        }
      ],
      "name": "ownership",
      "outputs": [
        {
          "internalType": "address",
          "name": "",
          "type": "address"
        }
      ],
      "payable": false,
      "stateMutability": "view",
      "type": "function"
    },
    {
      "constant": true,
      "inputs": [],
      "name": "squareCounter",
      "outputs": [
        {
          "internalType": "uint256",
          "name": "",
          "type": "uint256"
        }
      ],
      "payable": false,
      "stateMutability": "view",
      "type": "function"
    },
    {
      "constant": true,
      "inputs": [],
      "name": "squaresRemainingToAssign",
      "outputs": [
        {
          "internalType": "uint256",
          "name": "",
          "type": "uint256"
        }
      ],
      "payable": false,
      "stateMutability": "view",
      "type": "function"
    },
    {
      "constant": true,
      "inputs": [
        {
          "internalType": "address",
          "name": "",
          "type": "address"
        }
      ],
      "name": "toWithdraw",
      "outputs": [
        {
          "internalType": "uint256",
          "name": "",
          "type": "uint256"
        }
      ],
      "payable": false,
      "stateMutability": "view",
      "type": "function"
    },
    {
      "constant": false,
      "inputs": [],
      "name": "withdrawEther",
      "outputs": [],
      "payable": false,
      "stateMutability": "nonpayable",
      "type": "function"
    },
    {
      "constant": false,
      "inputs": [],
      "name": "claimSquare",
      "outputs": [],
      "payable": false,
      "stateMutability": "nonpayable",
      "type": "function"
    },
    {
      "constant": false,
      "inputs": [
        {
          "internalType": "uint256",
          "name": "squareIndex",
          "type": "uint256"
        },
        {
          "internalType": "uint256",
          "name": "minSalePriceInWei",
          "type": "uint256"
        }
      ],
      "name": "offerSquareForSale",
      "outputs": [],
      "payable": false,
      "stateMutability": "nonpayable",
      "type": "function"
    },
    {
      "constant": false,
      "inputs": [
        {
          "internalType": "uint256",
          "name": "squareIndex",
          "type": "uint256"
        },
        {
          "internalType": "uint256",
          "name": "minSalePriceInWei",
          "type": "uint256"
        },
        {
          "internalType": "address",
          "name": "toAddress",
          "type": "address"
        }
      ],
      "name": "offerSquareForSaleToAddress",
      "outputs": [],
      "payable": false,
      "stateMutability": "nonpayable",
      "type": "function"
    },
    {
      "constant": false,
      "inputs": [
        {
          "internalType": "uint256",
          "name": "squareIndex",
          "type": "uint256"
        }
      ],
      "name": "squareNoLongerForSale",
      "outputs": [],
      "payable": false,
      "stateMutability": "nonpayable",
      "type": "function"
    },
    {
      "constant": false,
      "inputs": [
        {
          "internalType": "uint256",
          "name": "squareIndex",
          "type": "uint256"
        }
      ],
      "name": "buySquare",
      "outputs": [],
      "payable": true,
      "stateMutability": "payable",
      "type": "function"
    },
    {
      "constant": false,
      "inputs": [
        {
          "internalType": "uint256",
          "name": "squareIndex",
          "type": "uint256"
        }
      ],
      "name": "bidForSquare",
      "outputs": [],
      "payable": true,
      "stateMutability": "payable",
      "type": "function"
    },
    {
      "constant": false,
      "inputs": [
        {
          "internalType": "uint256",
          "name": "squareIndex",
          "type": "uint256"
        }
      ],
      "name": "withdrawBidForSquare",
      "outputs": [],
      "payable": false,
      "stateMutability": "nonpayable",
      "type": "function"
    },
    {
      "constant": false,
      "inputs": [
        {
          "internalType": "uint256",
          "name": "squareIndex",
          "type": "uint256"
        },
        {
          "internalType": "uint256",
          "name": "minPrice",
          "type": "uint256"
        }
      ],
      "name": "acceptBidForSquare",
      "outputs": [],
      "payable": false,
      "stateMutability": "nonpayable",
      "type": "function"
    }
  ],
  "bytecode": "0x60806040526040518060600160405280604081526020016200326f60409139600090805190602001906200003592919062000132565b506040518060600160405280602e815260200162003241602e9139600190805190602001906200006792919062000132565b506103e86003553480156200007b57600080fd5b5033600260006101000a81548173ffffffffffffffffffffffffffffffffffffffff021916908373ffffffffffffffffffffffffffffffffffffffff1602179055506003546006819055506064600781905550605a6004819055506040518060400160405280600c81526020017f4d6172736469766973696f6e0000000000000000000000000000000000000000815250600590805190602001906200012392919062000132565b506000600881905550620001e1565b828054600181600116156101000203166002900490600052602060002090601f016020900481019282601f106200017557805160ff1916838001178555620001a6565b82800160010185558215620001a6579182015b82811115620001a557825182559160200191906001019062000188565b5b509050620001b59190620001b9565b5090565b620001de91905b80821115620001da576000816000905550600101620001c0565b5090565b90565b61305080620001f16000396000f3fe6080604052600436106101355760003560e01c8063a3d609d9116100ab578063af4739551161006f578063af47395514610711578063b7357d161461073f578063c25c7ae81461076a578063d072217d146107af578063dc05b655146107ea578063f820d04d1461081557610135565b8063a3d609d914610572578063a3f4df7e146105d7578063aa1e716314610667578063aea90ba514610695578063aeaa0819146106fa57610135565b806389fe2a7e116100fd57806389fe2a7e1461031c5780638c4e1adc146103ac578063902d55a51461043c5780639d516bf9146104675780639dbe34bd14610492578063a0f45b69146104f757610135565b806328861d221461013a5780634423c5f1146102015780635f706eac146102955780637362377b146102c05780637472b1a2146102d7575b600080fd5b34801561014657600080fd5b506101736004803603602081101561015d57600080fd5b8101908080359060200190929190505050610850565b60405180861515151581526020018581526020018473ffffffffffffffffffffffffffffffffffffffff1673ffffffffffffffffffffffffffffffffffffffff1681526020018381526020018273ffffffffffffffffffffffffffffffffffffffff1673ffffffffffffffffffffffffffffffffffffffff1681526020019550505050505060405180910390f35b34801561020d57600080fd5b5061023a6004803603602081101561022457600080fd5b81019080803590602001909291905050506108d3565b60405180851515151581526020018481526020018373ffffffffffffffffffffffffffffffffffffffff1673ffffffffffffffffffffffffffffffffffffffff16815260200182815260200194505050505060405180910390f35b3480156102a157600080fd5b506102aa610930565b6040518082815260200191505060405180910390f35b3480156102cc57600080fd5b506102d5610936565b005b3480156102e357600080fd5b5061031a600480360360408110156102fa57600080fd5b810190808035906020019092919080359060200190929190505050610a09565b005b34801561032857600080fd5b506103316110a3565b6040518080602001828103825283818151815260200191508051906020019080838360005b83811015610371578082015181840152602081019050610356565b50505050905090810190601f16801561039e5780820380516001836020036101000a031916815260200191505b509250505060405180910390f35b3480156103b857600080fd5b506103c1611141565b6040518080602001828103825283818151815260200191508051906020019080838360005b838110156104015780820151818401526020810190506103e6565b50505050905090810190601f16801561042e5780820380516001836020036101000a031916815260200191505b509250505060405180910390f35b34801561044857600080fd5b506104516111df565b6040518082815260200191505060405180910390f35b34801561047357600080fd5b5061047c6111e5565b6040518082815260200191505060405180910390f35b34801561049e57600080fd5b506104e1600480360360208110156104b557600080fd5b81019080803573ffffffffffffffffffffffffffffffffffffffff1690602001909291905050506111eb565b6040518082815260200191505060405180910390f35b34801561050357600080fd5b506105306004803603602081101561051a57600080fd5b8101908080359060200190929190505050611203565b604051808273ffffffffffffffffffffffffffffffffffffffff1673ffffffffffffffffffffffffffffffffffffffff16815260200191505060405180910390f35b34801561057e57600080fd5b506105d56004803603606081101561059557600080fd5b810190808035906020019092919080359060200190929190803573ffffffffffffffffffffffffffffffffffffffff169060200190929190505050611236565b005b3480156105e357600080fd5b506105ec6114e7565b6040518080602001828103825283818151815260200191508051906020019080838360005b8381101561062c578082015181840152602081019050610611565b50505050905090810190601f1680156106595780820380516001836020036101000a031916815260200191505b509250505060405180910390f35b6106936004803603602081101561067d57600080fd5b8101908080359060200190929190505050611585565b005b3480156106a157600080fd5b506106e4600480360360208110156106b857600080fd5b81019080803573ffffffffffffffffffffffffffffffffffffffff169060200190929190505050611d2e565b6040518082815260200191505060405180910390f35b34801561070657600080fd5b5061070f611d46565b005b61073d6004803603602081101561072757600080fd5b81019080803590602001909291905050506120c8565b005b34801561074b57600080fd5b506107546125eb565b6040518082815260200191505060405180910390f35b34801561077657600080fd5b506107ad6004803603604081101561078d57600080fd5b8101908080359060200190929190803590602001909291905050506125f1565b005b3480156107bb57600080fd5b506107e8600480360360208110156107d257600080fd5b81019080803590602001909291905050506128a3565b005b3480156107f657600080fd5b506107ff612bc5565b6040518082815260200191505060405180910390f35b34801561082157600080fd5b5061084e6004803603602081101561083857600080fd5b8101908080359060200190929190505050612bcb565b005b600a6020528060005260406000206000915090508060000160009054906101000a900460ff16908060010154908060020160009054906101000a900473ffffffffffffffffffffffffffffffffffffffff16908060030154908060040160009054906101000a900473ffffffffffffffffffffffffffffffffffffffff16905085565b600b6020528060005260406000206000915090508060000160009054906101000a900460ff16908060010154908060020160009054906101000a900473ffffffffffffffffffffffffffffffffffffffff16908060030154905084565b60085481565b6000600c60003373ffffffffffffffffffffffffffffffffffffffff1673ffffffffffffffffffffffffffffffffffffffff1681526020019081526020016000205490506000600c60003373ffffffffffffffffffffffffffffffffffffffff1673ffffffffffffffffffffffffffffffffffffffff168152602001908152602001600020819055503373ffffffffffffffffffffffffffffffffffffffff166108fc829081150290604051600060405180830381858888f19350505050158015610a05573d6000803e3d6000fd5b5050565b600354821115610a81576040517f08c379a00000000000000000000000000000000000000000000000000000000081526004018080602001828103825260158152602001807f53717561726520646f6573206e6f74206578697374000000000000000000000081525060200191505060405180910390fd5b3373ffffffffffffffffffffffffffffffffffffffff166009600084815260200190815260200160002060009054906101000a900473ffffffffffffffffffffffffffffffffffffffff1673ffffffffffffffffffffffffffffffffffffffff1614610b55576040517f08c379a000000000000000000000000000000000000000000000000000000000815260040180806020018281038252601a8152602001807f596f7520646f206e6f74206f776e20746869732073717561726500000000000081525060200191505060405180910390fd5b6000339050610b62612e5a565b600b60008581526020019081526020016000206040518060800160405290816000820160009054906101000a900460ff16151515158152602001600182015481526020016002820160009054906101000a900473ffffffffffffffffffffffffffffffffffffffff1673ffffffffffffffffffffffffffffffffffffffff1673ffffffffffffffffffffffffffffffffffffffff16815260200160038201548152505090506000816060015111610c81576040517f08c379a000000000000000000000000000000000000000000000000000000000815260040180806020018281038252601e8152602001807f456d707479206269642063616e206e6f742062652061636365707465642e000081525060200191505060405180910390fd5b8281606001511015610cde576040517f08c379a0000000000000000000000000000000000000000000000000000000008152600401808060200182810382526029815260200180612f4e6029913960400191505060405180910390fd5b80604001516009600086815260200190815260200160002060006101000a81548173ffffffffffffffffffffffffffffffffffffffff021916908373ffffffffffffffffffffffffffffffffffffffff160217905550600d60008373ffffffffffffffffffffffffffffffffffffffff1673ffffffffffffffffffffffffffffffffffffffff1681526020019081526020016000206000815480929190600190039190505550600d6000826040015173ffffffffffffffffffffffffffffffffffffffff1673ffffffffffffffffffffffffffffffffffffffff168152602001908152602001600020600081548092919060010191905055506040518060a00160405280600015158152602001858152602001826040015173ffffffffffffffffffffffffffffffffffffffff16815260200160008152602001600073ffffffffffffffffffffffffffffffffffffffff16815250600a600086815260200190815260200160002060008201518160000160006101000a81548160ff0219169083151502179055506020820151816001015560408201518160020160006101000a81548173ffffffffffffffffffffffffffffffffffffffff021916908373ffffffffffffffffffffffffffffffffffffffff1602179055506060820151816003015560808201518160040160006101000a81548173ffffffffffffffffffffffffffffffffffffffff021916908373ffffffffffffffffffffffffffffffffffffffff1602179055509050506000816060015190506040518060800160405280600015158152602001868152602001600073ffffffffffffffffffffffffffffffffffffffff1681526020016000815250600b600087815260200190815260200160002060008201518160000160006101000a81548160ff0219169083151502179055506020820151816001015560408201518160020160006101000a81548173ffffffffffffffffffffffffffffffffffffffff021916908373ffffffffffffffffffffffffffffffffffffffff1602179055506060820151816003015590505080600c60008573ffffffffffffffffffffffffffffffffffffffff1673ffffffffffffffffffffffffffffffffffffffff16815260200190815260200160002060008282540192505081905550816040015173ffffffffffffffffffffffffffffffffffffffff168373ffffffffffffffffffffffffffffffffffffffff16867f0b46412cf922d320a6d3b65fa9b31843ec790b7a64f5fac56b738441f306256e85606001516040518082815260200191505060405180910390a45050505050565b60018054600181600116156101000203166002900480601f0160208091040260200160405190810160405280929190818152602001828054600181600116156101000203166002900480156111395780601f1061110e57610100808354040283529160200191611139565b820191906000526020600020905b81548152906001019060200180831161111c57829003601f168201915b505050505081565b60008054600181600116156101000203166002900480601f0160208091040260200160405190810160405280929190818152602001828054600181600116156101000203166002900480156111d75780601f106111ac576101008083540402835291602001916111d7565b820191906000526020600020905b8154815290600101906020018083116111ba57829003601f168201915b505050505081565b60035481565b60045481565b600c6020528060005260406000206000915090505481565b60096020528060005260406000206000915054906101000a900473ffffffffffffffffffffffffffffffffffffffff1681565b3373ffffffffffffffffffffffffffffffffffffffff166009600085815260200190815260200160002060009054906101000a900473ffffffffffffffffffffffffffffffffffffffff1673ffffffffffffffffffffffffffffffffffffffff16146112ed576040517f08c379a0000000000000000000000000000000000000000000000000000000008152600401808060200182810382526029815260200180612f9d6029913960400191505060405180910390fd5b600354831115611365576040517f08c379a00000000000000000000000000000000000000000000000000000000081526004018080602001828103825260158152602001807f53717561726520646f6573206e6f74206578697374000000000000000000000081525060200191505060405180910390fd5b6040518060a001604052806001151581526020018481526020013373ffffffffffffffffffffffffffffffffffffffff1681526020018381526020018273ffffffffffffffffffffffffffffffffffffffff16815250600a600085815260200190815260200160002060008201518160000160006101000a81548160ff0219169083151502179055506020820151816001015560408201518160020160006101000a81548173ffffffffffffffffffffffffffffffffffffffff021916908373ffffffffffffffffffffffffffffffffffffffff1602179055506060820151816003015560808201518160040160006101000a81548173ffffffffffffffffffffffffffffffffffffffff021916908373ffffffffffffffffffffffffffffffffffffffff1602179055509050508073ffffffffffffffffffffffffffffffffffffffff16837f0b189ccf53019ae86c4cef3c685849357023ae79d4ae277297b14966e5ac5f30846040518082815260200191505060405180910390a3505050565b60058054600181600116156101000203166002900480601f01602080910402602001604051908101604052809291908181526020018280546001816001161561010002031660029004801561157d5780601f106115525761010080835404028352916020019161157d565b820191906000526020600020905b81548152906001019060200180831161156057829003601f168201915b505050505081565b61158d612e9a565b600a60008381526020019081526020016000206040518060a00160405290816000820160009054906101000a900460ff16151515158152602001600182015481526020016002820160009054906101000a900473ffffffffffffffffffffffffffffffffffffffff1673ffffffffffffffffffffffffffffffffffffffff1673ffffffffffffffffffffffffffffffffffffffff168152602001600382015481526020016004820160009054906101000a900473ffffffffffffffffffffffffffffffffffffffff1673ffffffffffffffffffffffffffffffffffffffff1673ffffffffffffffffffffffffffffffffffffffff16815250509050600354821115611700576040517f08c379a00000000000000000000000000000000000000000000000000000000081526004018080602001828103825260158152602001807f53717561726520646f6573206e6f74206578697374000000000000000000000081525060200191505060405180910390fd5b8060000151611777576040517f08c379a00000000000000000000000000000000000000000000000000000000081526004018080602001828103825260168152602001807f537175617265206973206e6f7420666f722073616c650000000000000000000081525060200191505060405180910390fd5b600073ffffffffffffffffffffffffffffffffffffffff16816080015173ffffffffffffffffffffffffffffffffffffffff1614611856573373ffffffffffffffffffffffffffffffffffffffff16816080015173ffffffffffffffffffffffffffffffffffffffff161415611855576040517f08c379a000000000000000000000000000000000000000000000000000000000815260040180806020018281038252601c8152602001807f537175617265206973206e6f74206f66666572656420746f20796f750000000081525060200191505060405180910390fd5b5b80606001513410156118b3576040517f08c379a0000000000000000000000000000000000000000000000000000000008152600401808060200182810382526028815260200180612ff46028913960400191505060405180910390fd5b6009600083815260200190815260200160002060009054906101000a900473ffffffffffffffffffffffffffffffffffffffff1673ffffffffffffffffffffffffffffffffffffffff16816040015173ffffffffffffffffffffffffffffffffffffffff161461196e576040517f08c379a000000000000000000000000000000000000000000000000000000000815260040180806020018281038252602e815260200180612fc6602e913960400191505060405180910390fd5b600081604001519050336009600085815260200190815260200160002060006101000a81548173ffffffffffffffffffffffffffffffffffffffff021916908373ffffffffffffffffffffffffffffffffffffffff160217905550600d60008273ffffffffffffffffffffffffffffffffffffffff1673ffffffffffffffffffffffffffffffffffffffff1681526020019081526020016000206000815480929190600190039190505550600d60003373ffffffffffffffffffffffffffffffffffffffff1673ffffffffffffffffffffffffffffffffffffffff16815260200190815260200160002060008154809291906001019190505550611a7183612bcb565b34600c60008373ffffffffffffffffffffffffffffffffffffffff1673ffffffffffffffffffffffffffffffffffffffff16815260200190815260200160002060008282540192505081905550611ac6612e5a565b600b60008581526020019081526020016000206040518060800160405290816000820160009054906101000a900460ff16151515158152602001600182015481526020016002820160009054906101000a900473ffffffffffffffffffffffffffffffffffffffff1673ffffffffffffffffffffffffffffffffffffffff1673ffffffffffffffffffffffffffffffffffffffff16815260200160038201548152505090503373ffffffffffffffffffffffffffffffffffffffff16816040015173ffffffffffffffffffffffffffffffffffffffff161415611cc2578060600151600c60003373ffffffffffffffffffffffffffffffffffffffff1673ffffffffffffffffffffffffffffffffffffffff168152602001908152602001600020600082825401925050819055506040518060800160405280600015158152602001858152602001600073ffffffffffffffffffffffffffffffffffffffff1681526020016000815250600b600086815260200190815260200160002060008201518160000160006101000a81548160ff0219169083151502179055506020820151816001015560408201518160020160006101000a81548173ffffffffffffffffffffffffffffffffffffffff021916908373ffffffffffffffffffffffffffffffffffffffff160217905550606082015181600301559050505b3373ffffffffffffffffffffffffffffffffffffffff168273ffffffffffffffffffffffffffffffffffffffff16857f0b46412cf922d320a6d3b65fa9b31843ec790b7a64f5fac56b738441f306256e346040518082815260200191505060405180910390a450505050565b600d6020528060005260406000206000915090505481565b6000600d60003373ffffffffffffffffffffffffffffffffffffffff1673ffffffffffffffffffffffffffffffffffffffff1681526020019081526020016000205414611dde576040517f08c379a000000000000000000000000000000000000000000000000000000000815260040180806020018281038252602a815260200180612f24602a913960400191505060405180910390fd5b600060065411611e56576040517f08c379a00000000000000000000000000000000000000000000000000000000081526004018080602001828103825260188152602001807f416c6c20737175617265732061726520636c61696d65642e000000000000000081525060200191505060405180910390fd5b6000600754600854019050600354811115611f8c576003549050600060085490505b81811015611edf57336009600083815260200190815260200160002060006101000a81548173ffffffffffffffffffffffffffffffffffffffff021916908373ffffffffffffffffffffffffffffffffffffffff1602179055508080600101915050611e78565b50600754600d60003373ffffffffffffffffffffffffffffffffffffffff1673ffffffffffffffffffffffffffffffffffffffff1681526020019081526020016000208190555060006006819055506008600090556007600090556004600090553373ffffffffffffffffffffffffffffffffffffffff16816008547f945d3943201927425cc233ef1a48fb87b1704650a56434556f4fc70a856eb3cf60405160405180910390a46120c5565b600060085490505b81811015611ffb57336009600083815260200190815260200160002060006101000a81548173ffffffffffffffffffffffffffffffffffffffff021916908373ffffffffffffffffffffffffffffffffffffffff1602179055508080600101915050611f94565b50600754600d60003373ffffffffffffffffffffffffffffffffffffffff1673ffffffffffffffffffffffffffffffffffffffff168152602001908152602001600020819055506007546006600082825403925050819055506007546008600082825401925050819055506064600454600754028161207657fe5b046007819055503373ffffffffffffffffffffffffffffffffffffffff16816008547f6c818ef5720d7f65afa9f8b4e998d4bfb49bb4192334f4a183f61f62d6796f6960405160405180910390a45b50565b600354811115612140576040517f08c379a00000000000000000000000000000000000000000000000000000000081526004018080602001828103825260158152602001807f53717561726520646f6573206e6f74206578697374000000000000000000000081525060200191505060405180910390fd5b600073ffffffffffffffffffffffffffffffffffffffff166009600083815260200190815260200160002060009054906101000a900473ffffffffffffffffffffffffffffffffffffffff1673ffffffffffffffffffffffffffffffffffffffff161415612216576040517f08c379a00000000000000000000000000000000000000000000000000000000081526004018080602001828103825260178152602001807f537175617265206973206e6f74206f776e65642079657400000000000000000081525060200191505060405180910390fd5b3373ffffffffffffffffffffffffffffffffffffffff166009600083815260200190815260200160002060009054906101000a900473ffffffffffffffffffffffffffffffffffffffff1673ffffffffffffffffffffffffffffffffffffffff1614156122eb576040517f08c379a000000000000000000000000000000000000000000000000000000000815260040180806020018281038252601b8152602001807f596f75206f776e20746869732073717561726520616c7265616479000000000081525060200191505060405180910390fd5b60003411612361576040517f08c379a00000000000000000000000000000000000000000000000000000000081526004018080602001828103825260108152602001807f426964206c6f776572207468616e20300000000000000000000000000000000081525060200191505060405180910390fd5b612369612e5a565b600b60008381526020019081526020016000206040518060800160405290816000820160009054906101000a900460ff16151515158152602001600182015481526020016002820160009054906101000a900473ffffffffffffffffffffffffffffffffffffffff1673ffffffffffffffffffffffffffffffffffffffff1673ffffffffffffffffffffffffffffffffffffffff16815260200160038201548152505090508060600151341161246a576040517f08c379a0000000000000000000000000000000000000000000000000000000008152600401808060200182810382526026815260200180612f776026913960400191505060405180910390fd5b6000816060015111156124cd578060600151600c6000836040015173ffffffffffffffffffffffffffffffffffffffff1673ffffffffffffffffffffffffffffffffffffffff168152602001908152602001600020600082825401925050819055505b60405180608001604052806001151581526020018381526020013373ffffffffffffffffffffffffffffffffffffffff16815260200134815250600b600084815260200190815260200160002060008201518160000160006101000a81548160ff0219169083151502179055506020820151816001015560408201518160020160006101000a81548173ffffffffffffffffffffffffffffffffffffffff021916908373ffffffffffffffffffffffffffffffffffffffff160217905550606082015181600301559050503373ffffffffffffffffffffffffffffffffffffffff16827f9b3e4eb06f87f90c9af7a2b8fb2eacb08f1c3e267f239a547b3aa3c1c90249ab346040518082815260200191505060405180910390a35050565b60065481565b3373ffffffffffffffffffffffffffffffffffffffff166009600084815260200190815260200160002060009054906101000a900473ffffffffffffffffffffffffffffffffffffffff1673ffffffffffffffffffffffffffffffffffffffff16146126a8576040517f08c379a0000000000000000000000000000000000000000000000000000000008152600401808060200182810382526029815260200180612f9d6029913960400191505060405180910390fd5b600354821115612720576040517f08c379a00000000000000000000000000000000000000000000000000000000081526004018080602001828103825260158152602001807f53717561726520646f6573206e6f74206578697374000000000000000000000081525060200191505060405180910390fd5b6040518060a001604052806001151581526020018381526020013373ffffffffffffffffffffffffffffffffffffffff168152602001828152602001600073ffffffffffffffffffffffffffffffffffffffff16815250600a600084815260200190815260200160002060008201518160000160006101000a81548160ff0219169083151502179055506020820151816001015560408201518160020160006101000a81548173ffffffffffffffffffffffffffffffffffffffff021916908373ffffffffffffffffffffffffffffffffffffffff1602179055506060820151816003015560808201518160040160006101000a81548173ffffffffffffffffffffffffffffffffffffffff021916908373ffffffffffffffffffffffffffffffffffffffff160217905550905050600073ffffffffffffffffffffffffffffffffffffffff16827f0b189ccf53019ae86c4cef3c685849357023ae79d4ae277297b14966e5ac5f30836040518082815260200191505060405180910390a35050565b60035481111561291b576040517f08c379a00000000000000000000000000000000000000000000000000000000081526004018080602001828103825260158152602001807f53717561726520646f6573206e6f74206578697374000000000000000000000081525060200191505060405180910390fd5b612923612e5a565b600b60008381526020019081526020016000206040518060800160405290816000820160009054906101000a900460ff16151515158152602001600182015481526020016002820160009054906101000a900473ffffffffffffffffffffffffffffffffffffffff1673ffffffffffffffffffffffffffffffffffffffff1673ffffffffffffffffffffffffffffffffffffffff16815260200160038201548152505090503373ffffffffffffffffffffffffffffffffffffffff16816040015173ffffffffffffffffffffffffffffffffffffffff1614612a50576040517f08c379a000000000000000000000000000000000000000000000000000000000815260040180806020018281038252602c815260200180612ef8602c913960400191505060405180910390fd5b6000816060015190506040518060800160405280600015158152602001848152602001600073ffffffffffffffffffffffffffffffffffffffff1681526020016000815250600b600085815260200190815260200160002060008201518160000160006101000a81548160ff0219169083151502179055506020820151816001015560408201518160020160006101000a81548173ffffffffffffffffffffffffffffffffffffffff021916908373ffffffffffffffffffffffffffffffffffffffff160217905550606082015181600301559050503373ffffffffffffffffffffffffffffffffffffffff166108fc829081150290604051600060405180830381858888f19350505050158015612b6c573d6000803e3d6000fd5b503373ffffffffffffffffffffffffffffffffffffffff16837fa9a558244002bf6e768a8af234f1834be128a6370b88dc6f98b52e6f80c8ccdf84606001516040518082815260200191505060405180910390a3505050565b60075481565b3373ffffffffffffffffffffffffffffffffffffffff166009600083815260200190815260200160002060009054906101000a900473ffffffffffffffffffffffffffffffffffffffff1673ffffffffffffffffffffffffffffffffffffffff1614612c82576040517f08c379a0000000000000000000000000000000000000000000000000000000008152600401808060200182810382526029815260200180612f9d6029913960400191505060405180910390fd5b600354811115612cfa576040517f08c379a00000000000000000000000000000000000000000000000000000000081526004018080602001828103825260158152602001807f53717561726520646f6573206e6f74206578697374000000000000000000000081525060200191505060405180910390fd5b6040518060a001604052806000151581526020018281526020013373ffffffffffffffffffffffffffffffffffffffff16815260200160008152602001600073ffffffffffffffffffffffffffffffffffffffff16815250600a600083815260200190815260200160002060008201518160000160006101000a81548160ff0219169083151502179055506020820151816001015560408201518160020160006101000a81548173ffffffffffffffffffffffffffffffffffffffff021916908373ffffffffffffffffffffffffffffffffffffffff1602179055506060820151816003015560808201518160040160006101000a81548173ffffffffffffffffffffffffffffffffffffffff021916908373ffffffffffffffffffffffffffffffffffffffff160217905550905050807facbc44b7f46dc350c99fc0d9e5f61ed5c588cb4cdc6b69ea0deb0c5b28e5efc460405160405180910390a250565b604051806080016040528060001515815260200160008152602001600073ffffffffffffffffffffffffffffffffffffffff168152602001600081525090565b6040518060a0016040528060001515815260200160008152602001600073ffffffffffffffffffffffffffffffffffffffff16815260200160008152602001600073ffffffffffffffffffffffffffffffffffffffff168152509056fe596f7520646f206e6f74206861766520612062696420666f7220746869732073717561726520616374697665596f7520636c61696d656420746865206d6178696d756d206f66207371756172657320616c726561647954686520626964206973206c6f776572207468616e20796f7572206d696e696d756d2070726963652e596f757220626964206973206c6f776572207468616e207468652063757272656e7420626964596f752063616e206e6f74206f6666657220612073717561726520796f7520646f206e6f74206f776e5468697320737175617265206973206e6f206c6f6e676572206f776e65642062792074686973206164647265737354686520707269636520697320686967686572207468616e20796f75722073656e74204574686572a265627a7a723158208c671a8c4d9ebed21003894875cd26a24ff6a759ac374969111299b20c088d1164736f6c63430005100032516d576d57665231583941506f324c56557a377266586a5067504d71356a6676534631784d74676b63664a71626365333265633630613131383635356561336330343462616636626437386533616230353763393266313632363338313533616565396233663263356561643762",
  "source": "//SPDX-License-Identifier: MIT\npragma solidity ^0.5.16;\n\n\n/// @title A simple co ntract to store property rights on mars\ncontract DivideMars {\n    \n    // To verify the map\n    string public MAP_HASH = \"e32ec60a118655ea3c044baf6bd78e3ab057c92f162638153aee9b3f2c5ead7b\";\n    string public IPFS_HASH = \"QmWmWfR1X9APo2LVUz7rfXjPgPMq5jfvSF1xMtgkcfJqbc\"; \n    \n    //Constants\n    address payable OWNER;\n    uint public TOTAL_SUPPLY = 1000;\n    uint public DEGRESSION;\n    string public NAME ;\n\n    //Variables\n    uint public squaresRemainingToAssign;\n    uint public claimProp;\n    uint public squareCounter;\n\n\n    //Mappings\n    mapping(uint => address) public ownership;\n    mapping(uint => Offer) public market;\n    mapping(uint => Bid) public bids;\n    mapping(address => uint) public toWithdraw;\n    mapping(address => uint256) public nClaimed;\n\n    constructor()  public {\n        OWNER = msg.sender;                       // Update total supply\n        squaresRemainingToAssign = TOTAL_SUPPLY;\n        claimProp = 100;\n\n        DEGRESSION = 90;\n        NAME = \"Marsdivision\";\n        squareCounter = 0;\n    }\n\n    // Events\n    event SquareBidEntered(uint indexed punkIndex, uint value, address indexed fromAddress);\n    event SquareOffered(uint indexed punkIndex, uint minValue, address indexed toAddress);\n    event SquareBidWithdrawn(uint indexed punkIndex, uint value, address indexed fromAddress);\n    event SquareBought(uint indexed punkIndex, uint value, address indexed fromAddress, address indexed toAddress);\n    event OfferWithdrawn(uint indexed punkIndex);\n    event SquareClaimed(uint indexed start, uint indexed end,  address indexed fromAdsdress);\n    event FinalSquareClaimed(uint indexed start, uint indexed end,  address indexed fromAdsdress);\n\n    struct Offer {\n        bool isForSale;\n        uint punkIndex;\n        address seller;\n        uint minValue;          // in ether\n        address onlySellTo;     // specify to sell only to a specific person\n    }\n\n    struct Bid {\n        bool hasBid;\n        uint punkIndex;\n        address bidder;\n        uint value;\n    }\n\n    // withdraw offers\n    function withdrawEther() public {\n        uint  amount  = toWithdraw[msg.sender];\n        // Remember to zero the pending refund before\n        // sending to prevent re-entrancy attacks\n        toWithdraw[msg.sender] = 0;\n        msg.sender.transfer(amount);\n    }\n\n\n    // Initial distributtruffle migrate-rion\n    // Version 1: Simple claim based on ID\n    function claimSquare() public {\n        require(nClaimed[msg.sender] == 0, \"You claimed the maximum of squares already\");\n        require(squaresRemainingToAssign > 0, \"All squares are claimed.\");\n        uint ids = squareCounter + claimProp;\n        if(ids> TOTAL_SUPPLY){\n            ids = TOTAL_SUPPLY;\n            for (uint i=squareCounter; i < (ids) ; i++) {\n            ownership[i] = msg.sender;\n            }\n            nClaimed[msg.sender] = claimProp;\n            squaresRemainingToAssign = 0;\n            delete squareCounter;\n            delete claimProp;\n            delete DEGRESSION;\n            emit FinalSquareClaimed(squareCounter, ids , msg.sender);\n        }\n        else {\n            for (uint i=squareCounter; i < (ids) ; i++) {\n                ownership[i] = msg.sender;\n            }\n            nClaimed[msg.sender] = claimProp;\n            squaresRemainingToAssign -= claimProp;\n            squareCounter += claimProp;\n            claimProp = claimProp * DEGRESSION / 100;\n            emit SquareClaimed(squareCounter, ids , msg.sender);\n        }\n     }\n\n    // Offers\n    function offerSquareForSale (uint squareIndex, uint minSalePriceInWei)  public  {\n        require(ownership[squareIndex] == msg.sender, \"You can not offer a square you do not own\");\n        require(squareIndex <= TOTAL_SUPPLY, \"Square does not exist\");\n        market[squareIndex] = Offer(true, squareIndex, msg.sender, minSalePriceInWei, address(0x0));\n        emit SquareOffered(squareIndex, minSalePriceInWei, address(0x0));\n    }\n\n    function offerSquareForSaleToAddress (uint squareIndex, uint minSalePriceInWei, address toAddress)  public  {\n        require(ownership[squareIndex] == msg.sender, \"You can not offer a square you do not own\");\n        require(squareIndex <= TOTAL_SUPPLY, \"Square does not exist\");\n        market[squareIndex] = Offer(true, squareIndex, msg.sender, minSalePriceInWei, toAddress);\n        emit SquareOffered(squareIndex, minSalePriceInWei, toAddress);\n    }\n    \n    function squareNoLongerForSale(uint squareIndex) public {\n        require(ownership[squareIndex] == msg.sender, \"You can not offer a square you do not own\");\n        require(squareIndex <= TOTAL_SUPPLY, \"Square does not exist\");\n        market[squareIndex] = Offer(false, squareIndex, msg.sender, 0, address(0x0));\n        emit OfferWithdrawn(squareIndex);\n    }\n    \n    function buySquare(uint squareIndex) public payable {\n        Offer memory offer = market[squareIndex];\n        require(squareIndex <= TOTAL_SUPPLY, \"Square does not exist\");\n        require(offer.isForSale, \"Square is not for sale\"); \n        if (offer.onlySellTo != address(0x0)) {\n            require(offer.onlySellTo != msg.sender, \"Square is not offered to you\");\n        }\n        require(msg.value >= offer.minValue, \"The price is higher than your sent Ether\"); \n        require(offer.seller == ownership[squareIndex], \"This square is no longer owned by this address\");\n        address seller = offer.seller;\n        ownership[squareIndex] = msg.sender;\n        nClaimed[seller]--;\n        nClaimed[msg.sender]++;\n        squareNoLongerForSale(squareIndex);\n        toWithdraw[seller] += msg.value;\n        // Check for the case where there is a bid from the new owner and refund it.\n        Bid memory bid = bids[squareIndex];\n        if (bid.bidder == msg.sender) {\n            // Kill bid and refund value\n            toWithdraw[msg.sender] += bid.value;\n            bids[squareIndex] = Bid(false, squareIndex, address(0x0), 0);\n        }\n        emit SquareBought(squareIndex, msg.value, seller, msg.sender);\n    }\n    \n    // Bidding\n    function bidForSquare(uint squareIndex) public payable {\n        require(squareIndex <= TOTAL_SUPPLY, \"Square does not exist\");\n        require(ownership[squareIndex] != address(0x0), \"Square is not owned yet\");\n        require(ownership[squareIndex] != msg.sender, \"You own this square already\");\n        require(msg.value > 0, \"Bid lower than 0\");\n        Bid memory existing = bids[squareIndex];\n        require(msg.value > existing.value, \"Your bid is lower than the current bid\");\n        if (existing.value > 0) {\n            // Refund the failing bid\n            toWithdraw[existing.bidder] += existing.value;\n        }\n        bids[squareIndex] = Bid(true, squareIndex, msg.sender, msg.value);\n        emit SquareBidEntered(squareIndex, msg.value, msg.sender);\n    }\n\n    function withdrawBidForSquare  (uint squareIndex)  public  {\n        require(squareIndex <= TOTAL_SUPPLY, \"Square does not exist\");\n        Bid memory bid = bids[squareIndex];\n        require(bid.bidder ==  msg.sender, \"You do not have a bid for this square active\");\n        uint amount = bid.value;\n        bids[squareIndex] = Bid(false, squareIndex, address(0x0), 0);\n        msg.sender.transfer(amount);\n        emit SquareBidWithdrawn(squareIndex, bid.value, msg.sender);\n\n    }\n\n    function acceptBidForSquare  (uint squareIndex, uint minPrice)  public  {\n        require(squareIndex <= TOTAL_SUPPLY, \"Square does not exist\");\n        require(ownership[squareIndex] == msg.sender, \"You do not own this square\");\n        address seller = msg.sender;\n        Bid memory bid = bids[squareIndex];\n        require(bid.value > 0, \"Empty bid can not be accepted.\");\n        require(bid.value >= minPrice, \"The bid is lower than your minimum price.\");\n        ownership[squareIndex] = bid.bidder;\n        nClaimed[seller]--;\n        nClaimed[bid.bidder]++;\n        market[squareIndex] = Offer(false, squareIndex, bid.bidder, 0, address(0x0));\n        uint amount = bid.value;\n        bids[squareIndex] = Bid(false, squareIndex, address(0x0), 0);\n        toWithdraw[seller] += amount;\n        emit SquareBought(squareIndex, bid.value, seller, bid.bidder);\n    }\n}",
  "sourcePath": "C:/Users/igors/Documents/mars_project/contracts/DivideMars.sol",
  "compiler": {
    "name": "solc",
    "version": "0.5.16+commit.9c3226ce.Emscripten.clang"
  },
  "schemaVersion": "3.3.4",
  "updatedAt": "2021-03-24T20:23:27.715Z",
  "networkType": "ethereum",
  "devdoc": {
    "methods": {},
    "title": "A simple co ntract to store property rights on mars"
  },
  "userdoc": {
    "methods": {}
  }
}